:020000040800F2
:10000000E00C0020990100084B290008C5230008D6
:10001000492900085D0900082B3100080000000094
:10002000000000000000000000000000E32C0008B9
:100030009709000800000000E12C0008E52C0008EA
:10004000B3010008B3010008B3010008B3010008C0
:10005000B3010008B3010008B3010008B3010008B0
:10006000B3010008B3010008B301000861090008EA
:10007000B3010008B3010008B3010008B301000890
:10008000B3010008B3010008B3010008B301000880
:10009000B3010008B3010008B3010008B301000870
:1000A000B3010008B3010008B3010008B301000860
:1000B000B3010008B3010008652D0008B301000872
:1000C000B3010008B3010008B3010008B301000840
:1000D000B3010008B3010008B3010008B301000830
:1000E000B3010008B3010008B301000800F002F8F2
:1000F00000F042F80AA090E8000C82448344AAF180
:100100000107DA4501D100F037F8AFF2090EBAE87D
:100110000F0013F0010F18BFFB1A43F0010318473B
:100120005042000070420000103A24BF78C878C1E5
:10013000FAD8520724BF30C830C144BF04680C60ED
:10014000704700000023002400250026103A28BF35
:1001500078C1FBD8520728BF30C148BF0B60704739
:10016000642900F09D80732900F0E182002070472F
:100170001FB51FBD10B510BD00F018FB1146FFF7ED
:10018000F7FF03F0D7F800F036FB03B4FFF7F2FFF8
:1001900003BC00F039FB00000948804709480047CC
:1001A000FEE7FEE7FEE7FEE7FEE7FEE7FEE7FEE727
:1001B000FEE7FEE704480549054A064B7047000084
:1001C000612D0008ED000008E0060020E00C002092
:1001D000E0080020E00800200FB41CB5074B06AA79
:1001E0007B4469460090059800F077FA0020694644
:1001F00000F086FA1CBC5DF814FB00001D05000031
:1002000070B5044685690068C10601D5302600E056
:100210002026C00707D070BDD4E9012130469047A1
:10022000206A401C20626D1EF6D570BD70B5044674
:1002300085690078C00707D170BDD4E9012120206D
:100240009047206A401C20626D1EF6D570BD70B5C7
:100250000C460546012A05D02878800600D5EA69B3
:10026000002302E0012305E05B1C934202D2E05C24
:100270000028F9D1A869E618C01AA861286A1844AC
:1002800028622846FFF7BCFF04E0D5E9012114F8F5
:10029000010B9047B442F8D32846FFF7C7FF70BD63
:1002A0002DE9F0410646002410687529314616A54F
:1002B00010D0AFF30080002802DA404213A507E017
:1002C00031688A0701D512A502E0490704D511A5B6
:1002D000012401E0AFF3008000210A2206F1240787
:1002E00009E0B0FBF2FCB0FBF2F302FB1C00303083
:1002F00078541846491C0028F3D123462A46304634
:10030000BDE8F04100F08BB9000000002D000000B6
:100310002B000000200000002DE9F05F8946044614
:100320004FF0000ADFF824B1FB44C0F820A02046BB
:10033000E168884700287DD0252806D0D4E901212E
:100340009047206A401C2062F1E700255F46204666
:10035000E16888472028064607DB312E05D2B81908
:1003600010F8200C08B10543F1E7A80701D525F0E6
:100370000405C4F81CA00027C4F818A02A2E09D030
:10038000304602F008FF38B304EB8708303EC8F867
:10039000186019E059F8041B204604EB87029161AC
:1003A000E1688847012F064618D1E069002820DA65
:1003B00025F020051DE0D8F8180000EB800006EBC2
:1003C00040003038C8F818002046E16888470646E3
:1003D00002F0E1FE0028EED1012F0AD02E2E08D126
:1003E0002046E16888477F1C0646022F45F020051D
:1003F000C4DBA069002803DA404245F00105A06192
:10040000E80701D025F01005A6B1A6F14100192892
:1004100002D8203645F400654A463146204625601C
:100420004D46FFF79DFE60B1012807D0ED1D25F078
:10043000070000E007E000F1080978E705F104098A
:1004400075E730467AE7206ABDE8F09FF03F00008C
:1004500040EA010310B59B070FD1042A0DD310C841
:1004600008C9121F9C42F8D020BA19BA884201D993
:10047000012010BD4FF0FF3010BD1AB1D30703D0DB
:10048000521C07E0002010BD10F8013B11F8014B91
:100490001B1B07D110F8013B11F8014B1B1B01D1AD
:1004A000921EF1D1184610BD10B5431C02E010F8A1
:1004B000011B71B18107FAD14FF0013202C88C1AC9
:1004C0008C4314EAC211F9D0C01A0A0603D0C01E28
:1004D00010BDC01A10BD0A0401D0801E10BD090253
:1004E000FCD0401E10BD032A40F2308010F0030CF7
:1004F00000F0158011F8013BBCF1020F624498BF77
:1005000011F801CB00F8013B38BF11F8013BA2F113
:10051000040298BF00F801CB38BF00F8013B11F08E
:10052000030300F00881083AC0F0088051F8043B4A
:10053000083A51F804CBA0E80810F5E7121D5CBF9B
:1005400051F8043B40F8043BAFF30080D20724BFCE
:1005500011F8013B11F801CB48BF11F8012B24BF62
:1005600000F8013B00F801CB48BF00F8012B7047B1
:100570004FF000020429C0F0128010F0030C00F0CC
:100580001B80CCF1040CBCF1020F18BF00F8012B4A
:10059000A8BF20F8022BA1EB0C0100F00DB85FEA18
:1005A000C17C24BF00F8012B00F8012B48BF00F8E4
:1005B000012B70474FF0000200B513469446964653
:1005C000203922BFA0E80C50A0E80C50B1F1200166
:1005D000BFF4F7AF090728BFA0E80C5048BF0CC014
:1005E0005DF804EB890028BF40F8042B08BF704772
:1005F00048BF20F8022B11F0804F18BF00F8012BE4
:10060000704770477047704710B500F0C7F8006832
:1006100010BD10B5044600F0C1F8046010BD2DE90E
:10062000F0470D4699469246044600F124080168B9
:10063000880604D5E06921F01001216000E0012066
:10064000A84201DD471B00E00027A1697A1902EBEF
:100650000900081AA0612078C00602D42046FFF7DE
:10066000CFFD002608E0D4E901211AF806009047E2
:10067000206A401C761C20624E45F4DB2078C006C0
:100680000AD52046FFF7BCFD06E0D4E90121302061
:100690009047206A401C2062381EA7F10107F4DC55
:1006A00007E0D4E9012118F805009047206A401CB2
:1006B0002062281EA5F10105F3DC2046FFF7B6FDF8
:1006C0002078000602D50220BDE8F0870120FBE774
:1006D00001694A1C02610878704700B58FB0CDE906
:1006E00001310021059105497944CDE903101146F6
:1006F0006846FFF711FE0FB000BD0000E5FFFFFFE9
:100700000A6802F8010B0A60704710B5436913B11B
:10071000AFF3008001E0FFF79AFD012010BD1278D1
:1007200000F124010A7000224A700122EDE71168ED
:100730004FF0FF32E9E710B5203AC0F00B80B1E886
:100740001850203AA0E81850B1E81850A0E8185006
:10075000BFF4F5AF5FEA027C24BFB1E81850A0E80F
:10076000185044BF18C918C0BDE810405FEA827C29
:1007700024BF51F8043B40F8043B08BF7047D20740
:1007800028BF31F8023B48BF11F8012B28BF20F8E1
:10079000023B48BF00F8012B70470000004870473B
:1007A0007C060020004870477C0600207546FFF755
:1007B000F9FFAE4605006946534620F0070085461E
:1007C00018B020B5FFF7F6FCBDE820404FF000065A
:1007D0004FF000074FF000084FF0000B21F0070129
:1007E000AC46ACE8C009ACE8C009ACE8C009ACE86C
:1007F000C0098D46704710B50446AFF3008020460F
:10080000BDE81040FFF7C1BC01491820ABBEFEE7B0
:10081000260002007047000070B504460068816839
:10082000C943C90717D1816821F00101816000F037
:10083000ADFC05460AE000BF00F0A8FC401B022802
:1008400004D920688068C043C00706D0206880684B
:10085000C043C007F0D0002070BDA06A40F0100077
:10086000A062E06A40F00100E062012070BD10B5B6
:100870000146406A826A12F0500F05D0006A026B8E
:10088000BDE8104008461047816A41F4007181625A
:1008900001688968C1F3424107290CD1017B51B934
:1008A000816A21F480718162816AC90403D4816AFA
:1008B00041F00101816200F0EFF810BD10B5406A0F
:1008C000816A41F040018162C16A41F00401C16264
:1008D00000F0E4F810BD10B5406A00F0DEF810BD7D
:1008E000F8B500260446009600688168C943C90728
:1008F0002DD0816841F001018160164816490068D9
:10090000B0FBF1F000E0401E00900028FBD100F0A9
:100910003DFC054616E000BF00F038FC401B0228F5
:1009200010D920688068C043C0070BD0A06A40F08F
:100930001000A062E06A40F00100E06284F82460E8
:100940000120F8BD20688068C043C007E4D10020C2
:10095000F8BD00001800002040420F00FEE7000034
:10096000014800F0F7B900006C00002030B590F8A5
:1009700040500124AC40C56B6C6004686360436800
:10098000102B036803D099600068C26030BD9A6084
:100990000068C16030BD704772B6FEE7F8B500244C
:1009A000009490F824202546012A12D0012280F8D4
:1009B00024204A681F23072A0DD20668776B521E2F
:1009C00002EB820293409F430B6893401F4377637F
:1009D00019E00220F8BD06680D2A0AD2376BD21F33
:1009E00002EB820293409F430B6893401F4337639F
:1009F00009E0F76A0D3A02EB820293409F430B68CD
:100A000093401F43F7620A68072306680A2A0AD33D
:100A1000F7680A3A02EB420293409F438B68934087
:100A20001F43F76008E0376902EB420293409F439F
:100A30008B6893401F4337610A68102A01D0112A3E
:100A400020D1124B02689A4217D193681B0219D425
:100A5000936843F4000393600968102912D10C498C
:100A60000C4A0968B1FBF2F101EB8101490000E099
:100A7000491E00910029FBD104E0816A41F0200168
:100A80008162012480F824502046F8BD00240140F2
:100A90001800002040420F00704770477047000068
:100AA0002DE9F0414FF0000704003D467ED0A06ADA
:100AB000002628B9E66284F82460204600F07EF81B
:100AC0002046FFF7A9FEA16AC90600D420B1A06A9A
:100AD00040F01000A06269E0A16A21F4885141F061
:100AE0000201A1626268E169237B0A4347EA43018C
:100AF0000A43A1684FF48077B94209D0012907D091
:100B00005FF0000194F814C0BCF1010F02D00AE0BC
:100B10003946F7E7F3B1A36A43F02003A362E36A1F
:100B200043F00103E3622368D3F804C02CF4694C5A
:100B30004CEA010CC3F804C021688B68DFF870C070
:100B400003EA0C0313438B60A168B9420BD001295F
:100B500009D00CE0DFF85CC0A3690CEB43330B4316
:100B600043F40061DFE7218A0D05A5F580152168B2
:100B7000CB6A23F470032B43CB62216889680E4B48
:100B80001940914208D1E662A16A21F0020141F0C8
:100B90000101A162BDE8F081A06A20F0020040F0EE
:100BA0001000A062E06A40F00100E0620120F1E77D
:100BB000FDF7E1FF00E0FFFFFE0E1FFF70B586B0FE
:100BC0000025064600950195029503950068194990
:100BD00088422DD11849886940F40070886188697D
:100BE00000F400700490886940F00400886188690E
:100BF000694600F004000490042000900320019056
:100C00000E4800F0C9F90F4C0D48C4E900058015E5
:100C1000A560C4E90350800060612020C4E9060596
:100C2000204600F041F908B1FFF7B6FE3462666273
:100C300006B070BD002401400010024000080140D1
:100C4000080002406C0000202DE9F0478946044668
:100C50003B4900683B4F0E1D9046884201D0B84288
:100C600007D1306810F4702F03D001252846BDE865
:100C7000F08794F8240001280CD0012084F8240087
:100C80002046FFF72DFE05004FF0000004D084F849
:100C90002400EBE70220EAE7A16A40F601629143F3
:100CA00041F48071A1622168B94218D1326812F40E
:100CB000702F14D0A16A41F48011A16231684905F6
:100CC00005D5A16A21F4005141F48051A162A16AC5
:100CD000C9040AD5E16A21F00601E16206E0A26AD0
:100CE00022F48012A2624968E9E7E06284F82400F5
:100CF000216A15488862216A1448C862216A14482A
:100D0000086321686FF0020008602068816841F480
:100D100080718160216843464A464C31206A00F068
:100D2000F1F820688168C1F342410729816803D046
:100D300041F48011816099E741F4A001FAE70000D5
:100D400000240140002801406F080008D70800086F
:100D5000BD0800082DE9F05FC16B0C6801680B68E5
:100D6000D0F840C0042202FA0CF2494DDFF824A169
:100D7000494E4A4FDFF828B1DFF828E122422CD053
:100D80005A072AD50A68920603D40A6822F0040298
:100D90000A600168A94201D1042219E0514501D13C
:100DA000402215E0B14202D14FF4806210E0B94216
:100DB00002D14FF480420BE0594502D14FF480221A
:100DC00006E0714502D14FF4800201E04FF08062ED
:100DD0002F4908394A60C16A3BE04FF0020808FA1F
:100DE0000CF818EA040F4FF000094FF0010235D05B
:100DF0005FEA837832D50B689B0605D40B6823F035
:100E00000A030B6080F821200168A94201D1022267
:100E100019E0514501D1202215E0B14202D14FF431
:100E2000007210E0B94202D14FF400520BE0594574
:100E300002D14FF4003206E0714502D14FF40012A6
:100E400001E04FF00072124908394A6080F82090A2
:100E5000816A00291AD0BDE8F05F0847082505FA25
:100E60000CF5254212D01B0710D50B6823F00E039A
:100E70000B6090F84010C36B02FA01F15960826375
:100E800080F8212080F82090016BE2E7BDE8F09F18
:100E9000080002401C0002403000024044000240B2
:100EA000580002406C00024030B528B308C813490E
:100EB00014221944B1FBF2F18900C1631049816326
:100EC000022141771A6843F6F0718A43D0E9001491
:100ED0002143D0E902452C4321430469214344695D
:100EE0002143846921431143196000214163012298
:100EF00042770177084630BD012030BDF8FFFDBFC5
:100F00000000024070B5044690F82000002501283A
:100F10000CD0012084F8200094F821600020012EDC
:100F200006D084F820000225284670BD022070BD3E
:100F3000022684F82160A0632068066826F0010676
:100F400006602046FFF712FDE06A0028206801686D
:100F500002D041F00E0106E021F00401016020689A
:100F6000016841F00A0101602068016841F0010157
:100F70000160D9E770B5044600F008F90546601C29
:100F800002D004480078044400F000F9401BA0425D
:100F9000FAD370BD0C0000202DE9F84FDFF8B891AE
:100FA0000024A9F1040B23460F2709F1040AABF131
:100FB000040EC9E00125A5402A40AA427DD1674E12
:100FC000D1F804C0ACEB0608B44532D014DCBCF157
:100FD000030F3AD009DCBCF1000F2AD0BCF1010F9D
:100FE0001CD0BCF1020F31D11DE0BCF1110F17D0A4
:100FF000BCF1120F2AD119E0B8F5881F19D006DC10
:10100000B8F5803F15D0B8F5801F1FD111E0B8F5B5
:10101000001F0ED0B8F5041F18D10AE0CB6815E008
:10102000CB681B1D12E0CB6808330FE0CB680C3394
:101030000CE08B682BB1012B4FF0080303D0456106
:1010400004E0042302E0056100E00023FF2A01D848
:10105000064601E000F104064FEA840501D9A5F136
:101060002005D6F8008007FA05FC28EA0C0803FAE8
:1010700005F548EA0508C6F800804D68ED0062D520
:10108000374DAE6946F00106AE61AD6924F0030646
:1010900005F001050095334D06EB050CDCF8085012
:1010A000A607360F07FA06F825EA0805DFF8B88024
:1010B000404503D14FF0000817E044E0DFF8AC8072
:1010C000404502D14FF001080FE0DFF8A480404511
:1010D00002D14FF0020808E0DFF89880404502D1C5
:1010E0004FF0030801E04FF0040808FA06F848EA58
:1010F0000508CCF808804D68D9F80060ED024D462F
:1011000001D5164300E096432E604D68DAF8006082
:10111000AD02554601D5164300E096432E604D685A
:10112000DBF80060AD035D4601D5164300E0964351
:101130002E604D68DEF80060ED03754601D516435C
:1011400000E096432E60641C0D682A46E5407FF45B
:1011500031AFBDE8F88F0000080401400000111015
:10116000001002400000014000080140000C014056
:1011700000100140001401408068084000D00120A8
:1011800070470AB1016170470904FBE701488068B4
:10119000704700000C00002070B5040025D094F8C2
:1011A0003D00002520B984F83C50204600F04EF95F
:1011B000242084F83D002068016821F001010160CD
:1011C0002068016841F4004101602068016821F451
:1011D0000041016000F016FB4D4A6168914201D860
:1011E0004C4900E04C49884201D2012070BD4B4976
:1011F0002368B0FBF1F15E6826F03F060E435E60A7
:101200006368934206D94FF4967359434FF47A7347
:10121000B1FBF3F12368491C1E6A26F03F063143F7
:1012200019626168914210D84900401EB0FBF1F28A
:10123000521CC2F30B02042A01D2042022E0B0FBAC
:10124000F1F0401CC0F30B001CE0A268F2B301EB0C
:10125000C10303EB0116431EB3FBF6F35B1C43F41F
:1012600080431B0549D092B301EBC10202EB01118F
:10127000401EB0FBF1F0401CC0F30B0040F4804076
:1012800040F400402168CA694CF6FF739A4310434A
:10129000C861D4E9071001432068026822F0C00247
:1012A00011430160D4E9030101432068826848F2D8
:1012B000FF339A4311438160D4E905010843216853
:1012C000CA6822F0FF021043C86001E00EE016E099
:1012D0002068016841F0010101602564202084F844
:1012E0003D00256384F83E50002070BD01EB4106AF
:1012F000431EB3FBF6F35B1CB3E70120C2E701EB2F
:101300004101401EB0FBF1F0401CC0F30B00B7E7F9
:10131000A086010080841E0000093D0040420F00AD
:101320002DE9F84F1F4690468A460446DDF828907E
:10133000FFF72CFF054694F83D0020287FD11923A4
:10134000012240492046009501F0CEF8002876D1D0
:1013500094F83C00012872D0012084F83C002068F9
:101360000168C90703D1016841F0010101602068EB
:10137000016821F400610160212084F83D00102003
:1013800084F83E0000262664C4F824806785608DBA
:1013900020852D48E0622B464A465146204601F002
:1013A00029F890B9206841698069009036E02A46A2
:1013B0004946204601F03EF950B1206C042804D182
:1013C0002068016841F4007101600120BDE8F88FD8
:1013D000606A216800780861606A401C6062618D03
:1013E000491E6185218D491E89B221852268536974
:1013F000DB435B070BD451B100781061606A401C7D
:101400006062608D401E6085208D401E20852A46CA
:101410004946204601F03CF80028CED1208D002816
:10142000C5D154F83D0B016841F4007101602020E2
:1014300004F81E09E67766770020C7E7FFE7022079
:10144000C4E70000020010000000FFFF10B586B0E6
:101450000021009101910291039100681349884293
:1014600022D1134CA06940F00800A061A069694630
:1014700000F0080004904FF440700090122001909A
:10148000032003900B48FFF787FD0B48416841F0AC
:10149000E06141F002014160E06940F40010E06168
:1014A000E06900F40010049006B010BD0054004044
:1014B00000100240000C0140000001400248816819
:1014C00002781144816070470C000020074810B575
:1014D000016841F010010160032000F075F80F2051
:1014E00000F006F800F024F8002010BD00200240B3
:1014F00070B50D4D04464FF47A712878B1FBF0F0C9
:101500000A490968B1FBF0F000F052FB48B9102C11
:1015100007D200222146501E00F036F800206C60F1
:1015200070BD012070BD00000C00002018000020DC
:101530000C4808B5816941F001018161816901F0C0
:1015400001010091C16941F08051C161C06900F0A1
:10155000805000900448416821F0E06141F0007142
:10156000416008BD0010024000000140002809DB76
:1015700000F01F02012191404009800000F1E020AD
:10158000C0F8001170470000F0B40E4B1B680C4609
:10159000C3F30223C3F10705042D00D90425191D47
:1015A000072901D2002300E0DB1E012606FA05F11F
:1015B000491E214099409E40761E16403143F0BCA2
:1015C00001F0CDBD0CED00E0064900F0070208680F
:1015D0004FF6FF03184040EA0220034A1043086018
:1015E000704700000CED00E00000FA052DE9F8431B
:1015F00005460078354CC00754D0E0690026C0008D
:1016000008D4E06940F08050E061E069012600F014
:10161000805000902E480168C90512D401688046A8
:1016200041F480710160FFF7B1FD074605E000BF9E
:10163000FFF7ACFDC01B642823D8D8F80000C00514
:10164000F6D5206A10F4407021D0A98801F44071C9
:1016500081421CD0206A1F49012220F440700A6098
:1016600000220A602062C00711D0FFF78FFD0746F5
:1016700041F2883808E000BFFFF788FDC11B4145F3
:1016800002D90320BDE8F883206A8007F4D5206AD8
:10169000696820F44070084320621EB1E06920F0C0
:1016A0008050E0612878800705D56068A96820F43B
:1016B0004040084360602878C00605D56068E96846
:1016C00020F48000084360600020DBE70010024047
:1016D00000700040400442422DE9F0470F460500EB
:1016E00061D0434E306800F00700B84209D230683C
:1016F00020F0070038433060306800F00700B8423F
:1017000051D128683B4C810712D5400703D560684A
:1017100040F4E06060602878000703D5606840F41A
:10172000605060606068A96820F0F0000843606065
:101730002878C00728D06868012810D021680228BE
:1017400010D0890700292EDA616821F003010143D6
:101750006160FFF71BFD804641F288390DE021688A
:101760008903EFE78901EDE7FFF710FDA0EB080122
:10177000494502D90320BDE8F0876068696800F038
:101780000C00B0EB810FEFD1306800F00700B842D9
:101790000BD9306820F0070038433060306800F023
:1017A0000700B84201D00120E5E72878400705D5B9
:1017B0006068E96820F4E06008436060287800070A
:1017C00006D56068296920F4605040EAC100606075
:1017D00000F038F86168084AC1F30311515CC84051
:1017E0000649086006480068FFF782FE0020C2E74D
:1017F0000020024000100240DC3B000818000020DE
:10180000100000200448054900684968044AC1F3F3
:101810000221515CC84070471800002000100240AF
:10182000EC3B00080448054900684968044AC1F3D4
:10183000C221515CC84070471800002000100240CF
:10184000EC3B00080E4A51680E4801F00C03042BD3
:1018500011D0082B0FD10C48C1F38343C903C05CDE
:101860000AD55168084AC1F34041921E515C054AAD
:101870005043B0FBF1F07047044948437047000003
:101880000010024000127A00CC3B000800093D0025
:101890002DE9F84F040070D02078C04DC00749D022
:1018A0006868C0F38100012807D06868C0F3810030
:1018B000022809D16868C00306D52868800339D595
:1018C00060680028E7D035E06068B0F5803F0BD055
:1018D00010B1B0F5A02F11D0286820F48030286016
:1018E000286820F4802002E0286840F480302860D6
:1018F000606890B1FFF74AFC06460AE0286840F4A9
:1019000080202860F0E700BFFFF740FC801B6428C0
:1019100073D828688003F7D50CE0FFF737FC06463C
:1019200005E000BFFFF732FC801B6428F0D8286870
:101930008003F7D420789A4E80074FF001094FF0CA
:10194000000839D5686810F00C0F07D06868C0F33C
:101950008100022809D16868C00306D4286880077E
:1019600014D52069012808D110E02069B0B1C6F86B
:101970000090FFF70BFC074605E00AE1FFF706FCC5
:10198000C01B0228C4D828688007F7D52868616979
:1019900020F0F80040EAC10028600DE0C6F80080A1
:1019A000FFF7F4FB074604E0FFF7F0FBC01B02283B
:1019B00023D828688007F7D4207800072CD57948E9
:1019C000A169D9B1C0F80090FFF7E0FB074604E039
:1019D000FFF7DCFBC01B02280FD8686A8007F7D529
:1019E00071484FF4FA510068B0FBF1F0009000BF6D
:1019F0000098411E0091FAD20EE080E0C0F800800D
:101A0000FFF7C4FB074604E0FFF7C0FBC01B02283A
:101A100075D8686A8007F7D42078400760D5E869F0
:101A20000027C00008D4E86940F08050E861E86908
:101A3000012700F0805000905C480168C90513D46C
:101A40000168834641F480710160FFF79FFB824685
:101A500006E000BFFFF79AFBA0EB0A0064284ED80F
:101A6000DBF80000C005F5D5E06801280AD008B110
:101A7000052813D0286A20F001002862286A20F087
:101A8000040002E0286A40F001002862E06841F2A8
:101A9000883B98B1FFF77AFB82460BE0286A40F05A
:101AA00004002862EEE700BFFFF770FBA0EB0A011D
:101AB00059455AD8286A8007F6D50CE0FFF766FB2F
:101AC000824605E0FFF762FBA0EB0A0159454CD8BE
:101AD000286A8007F6D41FB1E86920F08050E861D9
:101AE000E06988B36968C1F38101022944D0022802
:101AF000C6F8608004D0FFF749FB044638E034E0C4
:101B0000FFF744FB074604E0FFF740FBC01B022839
:101B10002BD828688001F7D4206AB0F5803F05D122
:101B20006868A16820F4003008436860D4E90801BF
:101B30000843696821F4741108436860C6F860902E
:101B4000FFF724FB044606E025E000BFFFF71EFB7D
:101B5000001B022809D828688001F7D51BE000BFC8
:101B6000FFF714FB001B022802D90320BDE8F88F01
:101B700028688001F4D40EE00128F7D06868226A52
:101B800000F48031914204D1616A00F470108842FF
:101B900001D00120EAE70020E8E700000010024041
:101BA00000004242800442421800002000700040C1
:101BB00010B5401EB0F1807F01D3012010BD4FF061
:101BC000E02460610F21601701F0C9FA0020A061D4
:101BD00007202061002010BD7047704710B590F8B5
:101BE0003C20012A22D0012280F83C20CA688C685F
:101BF00022F4407222434C6822F4806222430C6833
:101C000022F4006222430C6922F4805222434C6980
:101C100022F400522243C969002322F480420A437D
:101C200001684A6480F83C30002010BD022010BDDD
:101C300070B590F83C20012A26D0012480F83C4061
:101C4000022280F83D2003685A689D6822F07006E1
:101C50000A6832435A600D4B02689A4208D0B2F1CA
:101C6000804F05D00A4B9A4202D00A4B9A4204D1C7
:101C7000496825F080031943916080F83D400021B8
:101C800080F83C10084670BD022070BD002C014059
:101C9000000400400008004010B5040003D094F890
:101CA0003D0010B107E0012010BD002084F83C0089
:101CB000204600F01FF8022084F83D00211D206816
:101CC00001F056F8012084F8460084F83E0084F8BC
:101CD0003F0084F8400084F8410084F8420084F812
:101CE000430084F8440084F8450084F83D00002057
:101CF00010BD000008B5114A01681148914208D191
:101D0000816941F400618161806900F400600090A4
:101D100008BD0C4A9142FBD1C16941F00401C16187
:101D2000C069002200F00400009011461E20FFF759
:101D30002BFCBDE808401E20FFF718BC002C01401A
:101D4000001002400008004090F83D10012901D029
:101D500001207047022180F83D1000680B4988423D
:101D600008D0B0F1804F05D00949884202D0094916
:101D7000884204D1816801F00701062903D0016877
:101D800041F001010160002070470000002C01407B
:101D9000000400400008004090F83D10012901D0E7
:101DA00001207047022180F83D100168CA6842F0A6
:101DB0000102CA6000680B49884208D0B0F1804F28
:101DC00005D00949884202D00849884204D1816877
:101DD00001F00701062903D0016841F0010101600B
:101DE00000207047002C0140000400400008004023
:101DF00070B5044690F83C000025012817D0012654
:101E000084F83C60022084F83D002068826822F05B
:101E1000770222F47F4282600868502838D00DDCB7
:101E200020284FD005DC90B3102811D14AE00220C1
:101E300070BD302846D040280AD13BE060282FD022
:101E400070280DD0B0F5805F03D0B0F5005F12D0E0
:101E5000012584F83D60002084F83C00284670BDD0
:101E6000CB68D1E90121206800F0CBFF20688168B0
:101E700041F0770109E0CB68D1E90121206800F049
:101E8000C0FF2068816841F480418160E1E719E08A
:101E9000CA684968206801F069F85021206806E0A6
:101EA000CA684968206801F072F86021206800F073
:101EB000B2FFCEE7CA684968206801F057F84021B0
:101EC0002068F4E7226801461046F0E770472DE9E4
:101ED000F04104460068C66805694FF00007A9078D
:101EE00013D5B10711D5F91E0161012020772068B3
:101EF00080698007204602D0FFF7E8FF04E000F089
:101F0000A5F8204600F037F92777680716D570073F
:101F100014D521686FF00400086102202077206842
:101F2000806910F4407F204602D0FFF7CFFF04E025
:101F300000F08CF8204600F01EF92777280715D509
:101F4000300713D521686FF008000861042020775E
:101F50002068C0698007204602D0FFF7B7FF04E081
:101F600000F074F8204600F006F92777E80616D549
:101F7000F00614D521686FF0100008610820207762
:101F80002068C06910F4407F204602D0FFF79EFF12
:101F900004E000F05BF8204600F0EDF82777E80752
:101FA00008D0F00706D021686FF0010008612046D4
:101FB00000F030F9280608D5300606D521686FF004
:101FC000800008612046FFF707FE680608D5700606
:101FD00006D521686FF040000861204600F036F910
:101FE000A8060AD5B00608D521686FF02000086160
:101FF0002046BDE8F041FFF7F0BDBDE8F0810000EC
:1020000000B585B000210091019102910391006813
:102010000B49884212D10B48816941F0040181616A
:102020008069694600F0040004904FF480700090CD
:102030000220019003900448FEF7AEFF05B000BDFA
:10204000002C01400010024000080140704770B5AC
:10205000044690F83C0000260D4601280FD00120D0
:1020600084F83C006AB1042A1DD0082A2FD00C2A1B
:102070003FD00126002084F83C00304670BD02208D
:1020800070BD206800F0D0FE2068816941F0080131
:1020900081612068816921F0040181612068816982
:1020A0002A69114311E0206800F0E6FE206881698A
:1020B00041F4006181612068816921F4806181615E
:1020C000206881692A6941EA02218161D2E720689A
:1020D00000F0FEFE2068C16941F00801C16120687E
:1020E000C16921F00401C1612068C1692A691143F5
:1020F00011E0206800F018FF2068C16941F4006118
:10210000C1612068C16921F48061C1612068C16931
:102110002A6941EA0221C161ACE710B5040003D08D
:1021200094F83D0010B107E0012010BD002084F8B4
:102130003C00204600F01EF8022084F83D00211DDE
:10214000206800F015FE012084F8460084F83E0067
:1021500084F83F0084F8400084F8410084F842008D
:1021600084F8430084F8440084F8450084F83D0076
:10217000002010BD7047704710B50446022249B1D7
:1021800004290ED0082913D094F84100012816D054
:10219000012010BD94F83E000128F9D184F83E20BA
:1021A0000FE094F83F000128F2D184F83F2008E0C6
:1021B00094F840000128EBD184F8402001E084F835
:1021C00041200122206800F00FFE0F49206888425C
:1021D00003D1426C42F4004242642068884208D035
:1021E000B0F1804F05D00949884202D008498842A1
:1021F00004D1816801F00701062903D0016841F08C
:1022000001010160002010BD002C014000040040CD
:102210000008004010B50068094988420DD102212C
:102220000848FEF7A9FF08498A78012A04D118B99D
:102230000A781AB100220A70887010BD0122FAE7EC
:10224000000800400008014000000020704770B501
:10225000040004D094F84100002510B106E00120EC
:1022600070BD84F84050204600F024F8242084F803
:1022700041002068C16821F40051C160204600F08F
:10228000BFFE2068016921F4904101612068416925
:1022900021F02A0141612068C16841F40051C16008
:1022A0006564202084F8410084F8420065630020C2
:1022B00070BD000030B585B00024009401940294F4
:1022C000039400681449884224D11448816941F478
:1022D00080418161816901F480410491816941F00B
:1022E0000401816180690E4D00F0040004904FF4F8
:1022F0000070009002200190032003906946284658
:10230000FEF74AFE2815CDE90004694628460294E6
:10231000FEF742FE05B030BD00380140001002401B
:10232000000801402DE9F843044690F84100984622
:1023300016460D46202802D00220BDE8F88385B15C
:102340007EB100206064212084F84100FEF71EFF6A
:10235000A6848146E684A0682027B0F5805F02D07D
:1023600003E00120E9E7206910B12E4600250EE0C8
:1023700000260CE08021204600F09EFEA8B9C6B1E0
:1023800016F8010B21684860E08C401EE084E08C68
:102390004B464FF00002CDF800800028EAD14FF004
:1023A0004001204600F088FE40B184F841700320CF
:1023B000C3E735F8020BC0F30800E3E784F8417087
:1023C0000020BAE7FEE701684A69D24352050FD4FC
:1023D0006FF480624A61002140F8301F202242736E
:1023E0008173026942F004020261017301207047A7
:1023F00000207047F8B50446C06A1E460D461746D1
:10240000082807D0012805D010F5803F02D0206BA6
:10241000122804D12068016841F4807101601346DC
:1024200000224FF001112046009600F05DF840B107
:1024300020680068C00502D54FF4007020640320B6
:10244000F8BD2069B0F5804F0ED00620216800EA63
:10245000D51040F0F000086133463A460B4920465B
:1024600000F08AF878B902E005F0FE0000E0E8B27A
:1024700021680861054933463A46891F204600F025
:102480007BF80028DCD00120F8BD00000800010026
:1024900070B516460D4604461EE02046FFF793FF32
:1024A00008B1012070BD681C16D0FEF76FFE801BBE
:1024B000A84200D885B920684069C04340070BD5C1
:1024C000002044F8300F20216173A073216941F08E
:1024D000200121612073E4E720684069C043400780
:1024E000DBD4002070BD00002DE9F0479846174668
:1024F0000D460446C1F30746DDF820902AE000BFF0
:10250000B8F1FF3F26D0FEF741FEA0EB090141459F
:1025100002D8B8F1000F1DD12068012E16D08069B5
:1025200025EA00000004000C12D00020B84211D1AE
:10253000002044F8300F20216173A073216941F01D
:102540002001216120730120BDE8F0874069E7E7A1
:102550000120EBE72068012E0AD0806925EA0000FF
:102560000004000C06D00020B842C9D00020EBE7E0
:102570004069F3E70120F7E72DE9F0479846164652
:102580000D4604464FF000094FF0200AC1F30747FB
:1025900023E020684069C043400515D420680168E5
:1025A00041F40071016021686FF480604861C4F8F3
:1025B000309084F83DA084F83E90216C41F00401F5
:1025C000216484F83C9021E0701C06D0FEF7DEFD0B
:1025D000A0EB0800B04203D816B1012F1FD021E0B4
:1025E0002068012F15D0806925EA00000004000C46
:1025F00018D000BF44F8309F84F80DA084F80E90E6
:10260000216941F02001216184F80C900120BDE88E
:10261000F087406925EA00000004000CEAD1206838
:10262000406901E02068806925EA00000004000C90
:10263000AFD1ECE770B516460D4604461EE02046C5
:10264000FFF7C1FE08B1012070BD681C16D0FEF76F
:102650009DFD801BA84200D885B920684069C04311
:1026600000060BD5002044F8300F20216173A073C1
:10267000216941F0200121612073E4E7206840696D
:10268000C0430006DBD4002070BD00003EB5002131
:10269000164800910191144A0291026092158260DD
:1026A00001250573017502244FF460220461C261A3
:1026B0004160FEF7F5F908B1FEF76EF907200094C6
:1026C000CDE9015069460948FEF768F908B1FEF7FF
:1026D00063F9694605480194FEF760F9002801D0C6
:1026E000FEF75AF93EBD0000002401403C000020E6
:1026F000094808B5416941F0010141614069002282
:1027000000F00100009011460B20FEF73DFFBDE8F0
:1027100008400B20FEF72ABF0010024070B586B0BB
:1027200000251B480095019502950395816941F0AC
:1027300020018161816901F020010491816941F0EA
:1027400004018161816901F004010491816941F012
:102750000801816180690F4E00F00800049000229A
:1027600001213046FEF70DFD0124009401940294EE
:10277000694630460394FEF70FFC0220CDE90005C0
:10278000694602943046FEF707FC06B070BD0000B3
:1027900000100240000801400D4810B50B490160CF
:1027A0000C49416000214FF480428160C0E903126E
:1027B00041618161C1610162FEF7EEFC002803D036
:1027C000BDE81040FEF7E8B810BD0000005400401E
:1027D000B0000020801A060010B596B000240F94B7
:1027E00010941194129413941C2108A81494FDF7CA
:1027F000E1FE20216846FDF7DDFE294827490160FA
:102800004721C0E9011442F21071C0E9031480218C
:10281000C0E90541FFF740FA08B1FEF7BDF84FF4F3
:1028200080500F900FA91E48FFF7E2FA08B1FEF79B
:10283000B3F81B48FFF771FC08B1FEF7ADF813942D
:1028400013A917481494FFF7F3F908B1FEF7A4F899
:102850006020CDE908040A940B940C940D94002296
:1028600008A90F480E94FFF7F2FB08B1FEF794F8A1
:1028700000944FF40050CDE9044002940194039475
:10288000694607480794FFF7A9F908B1FEF784F8ED
:102890000348FFF7B5FB16B010BD0000002C014047
:1028A0000401002010B586B000241848009401945B
:1028B00002940394049414490594016041F61F4165
:1028C000C0E901144FF47A71C0E9031480218161D9
:1028D000FFF7E2F908B1FEF75FF84FF4805000907F
:1028E00069460A48FFF784FA08B1FEF755F8202038
:1028F000CDE9040404A90548FFF79AF9002801D09E
:10290000FEF74AF806B010BD000800404C01002058
:102910000C4810B50A4901604FF4E13141600021D3
:1029200081600C22C160C0E904128161C161FFF7BE
:102930008EFC002803D0BDE81040FEF72DB810BD76
:102940000038014094010020FEE7FEE710B5AE20FC
:1029500000F0DAF8202000F0D7F8102000F0D4F8CA
:10296000B02000F0D1F8C82000F0CEF8002000F030
:10297000CBF8102000F0C8F8402000F0C5F8812006
:1029800000F0C2F8DF2000F0BFF8A12000F0BCF892
:10299000A62000F0B9F8A82000F0B6F83F2000F01B
:1029A000B3F8A42000F0B0F8D32000F0ADF8002078
:1029B00000F0AAF8D52000F0A7F8F02000F0A4F865
:1029C000D92000F0A1F8222000F09EF8DA2000F0D3
:1029D0009BF8122000F098F8DB2000F095F82020FA
:1029E00000F092F88D2000F08FF8142000F08CF8A1
:1029F00000F008F800F050F9BDE81040AF2000F0FA
:102A000083B800004FF480610148FDF7B1BD0000BC
:102A10005D0200203CB51C78059D203ACDE90045BB
:102A20005D68E41D5B78E408544303FB045200F046
:102A3000CBF83CBD2DE9FF4F18785978C01DC00870
:102A400000254843001D83B01C46174600F0FF0ACE
:102A50002AE07819814600F069FB5FEA000826D079
:102A600000260AE06168484606FB0A1B42465946B2
:102A7000FDF7EEFCF0B1761CF6B2207AB042F1D848
:102A800010980090E368B8F1010F20D0DDE9030150
:102A90002022FFF7BFFFE068417803980844C0B2E6
:102AA000039005EB080085B2785D0028D1D107B00E
:102AB000BDE8F08F10992078CDE900016378DDE959
:102AC00003010BF1040200F07FF86178E5E77A5D1D
:102AD000DDE90301FFF79EFFE0686D1CADB24178B0
:102AE00003980844C0B20390DEE7000008B54FF039
:102AF000FF3200920B46024678210248FEF710FC96
:102B000008BD0000B00000200249487002210148C1
:102B1000FFF7ECBF1E0000202DE9FC418046072096
:102B2000CDE9000301F00704CD08164602FA04F0CF
:102B30001F46C2B223464146284600F089F8002CC1
:102B40000CD0601EC0B2CDE90007C4F1080026FA1F
:102B500000F2681C0023414600F07AF8BDE8FC81D1
:102B60002DE9FC4301F007061446CD08984681463E
:102B700001F0070106EB080204FA01F0099F082A98
:102B800016D90721CDE90017C2B233464946284677
:102B900000F05EF808EB06000938C0B2CDE9000786
:102BA000C6F1080024FA00F2681C0023494607E039
:102BB000521ED1B2CDE90017C2B23346494628466B
:102BC00000F046F8BDE8FC832DE9FF4F82B01D46BA
:102BD0000F989346C70800F007008846002601902A
:102BE00018E0029800240BEB060A00EB06090DE042
:102BF00004FB05F0109B10F80A2008EBC400C1B2DA
:102C000009F0FF00FFF788FF641CE4B2BC42EFD379
:102C1000761CF6B2AE42E4D30198002815D005FB2D
:102C200007F6002408EBC7070DE010980090311953
:102C300002981BF801202044F9B2C0B2019BFFF7B3
:102C40008FFF641CE4B2AC42EFD306B0BDE8F08F56
:102C5000F0B50828DDE9056419D2802917D20CB136
:102C6000D243D2B2FF25761C05FA06F6C3F108035B
:102C7000084F46EA0204DD4007EBC017044B785CBE
:102C8000B2432C43AA4320401A7010437854F0BD3D
:102C90001C0000205D02002070B5104D4020002473
:102CA000287005F1810600BF04F1B000C0B2FFF743
:102CB0002BFF0020FFF728FF1020FFF725FF06EB72
:102CC000C4118022681CFDF70EFC81210348FFF728
:102CD0000DFF641CE4B2082CE6D370BDDC010020BB
:102CE00070477047FEF7EABB30B593B028216846BD
:102CF000FDF760FC14210AA8FDF75CFC002501200B
:102D00000F9510951195010412958DE823000490FC
:102D10004FF4E010CDE90810022407946846FEF74E
:102D2000B7FD08B172B6FEE70AA90F2081E83100AD
:102D30004FF48060CDE90D0502210AA8FEF7CCFC16
:102D400008B172B6FEE74FF4004011900F940FA83F
:102D5000FEF74CFC002801D072B6FEE713B030BD80
:102D6000704700000148FFF7B2B800004C01002096
:102D7000F0B50268194B1A4C1A4D4FF08047984233
:102D800005D0B84203D0A04201D0A84203D122F01E
:102D900070064A683243984205D0B84203D0A04238
:102DA00001D0A84203D122F44074CA6822434C697E
:102DB00022F08002224302608A68C2620A6882624C
:102DC000984201D109690163012141610169C90783
:102DD00003D0016921F001010161F0BD002C014027
:102DE000000400400008004010B501F01F0301215D
:102DF000046A99408C430462016A9A40114301625B
:102E000010BD10B5846842EA032224F47F440A43CB
:102E10002243826010BD826822F070020A4342F0B1
:102E2000070181607047000030B5036A026A22F032
:102E3000010202624268846924F073050C682C4325
:102E400023F002058B682B430A4DA8420BD123F0D7
:102E50000805CB6822F440722B434D6923F004032C
:102E600015438A692A434260846149684163036269
:102E700030BD0000002C014030B5026A036A23F027
:102E800010030362436884690D6824F4E64444EA4D
:102E900005248D6822F0200242EA05120B4DA8425B
:102EA0000ED1CD6822F0800242EA05124D6923F46A
:102EB000406343EA85038D6922F0400243EA8503BB
:102EC0004360846149688163026230BD002C014027
:102ED00030B5036A026A22F4807202624268C469F1
:102EE00023F4007324F073050C682C438D6843EAC7
:102EF00005230C4DA8420ED1CD6823F4006343EAAC
:102F000005234D6922F4405242EA05128D6923F4EB
:102F1000806342EA05124260C4614968C16303628A
:102F200030BD0000002C014030B5046A026A22F472
:102F3000805202624268C3690D6823F4E64343EAA3
:102F400005238D6824F4005444EA0534064DA84254
:102F500004D14D6922F4804242EA85124260C36185
:102F600049680164046230BD002C014010B5036A59
:102F7000046A24F001040462846924F0F00444EA41
:102F8000021423F00A020A438461026210BD10B5E4
:102F9000036A046A24F010040462846923F0A00325
:102FA00024F4704444EA023243EA0111826101626E
:102FB00010BD01680C3151E8002F22F4907241E8F5
:102FC0000023002BF5D10168143151E8002F22F0C5
:102FD000010241E80023002BF5D1016B012909D141
:102FE00001680C3151E8002F22F0100241E8002363
:102FF000002BF5D1202180F8421000210163704799
:1030000070B5044600680169E26821F4405111433B
:1030100001612169A0680843616908432168CA68A1
:1030200041F20C639A430243CA6020684169A26975
:1030300021F44071114341611E492068884202D148
:10304000FEF7F0FB01E0FEF7DDFB00EBC00101EB5A
:103050000012606864218000B2FBF0F3B3FBF1F36F
:103060006FF018067343B2FBF0F5B2FBF0F605EB18
:103070008305322303EB0515B5FBF1F5B6FBF1F63D
:1030800005F0F00505EB0615B2FBF0F6B2FBF0F02B
:10309000B0FBF1F06FF01802504306EB800003EB39
:1030A0000010B0FBF1F0216800F00F0028448860A8
:1030B00070BD0000003801402DE9F84398461746DE
:1030C0000D460446089E24E0701C22D0FEF75EF8F0
:1030D000A0EB0800B0421AD8CEB12068C1684907F9
:1030E00017D5802D15D0402D13D00168C94309078D
:1030F0000FD401680025406800902046FFF759FF73
:103100000820606484F840500120BDE8F883032063
:10311000FBE72068006835EA000004D00020B842D0
:10312000D2D00020F1E70120F9E7FEE700780106A0
:1031300001D4012070470621B1EB501F01D10220BC
:1031400070470E21B1EB101F01D1032070471E21E3
:10315000B1EBD00F01D10420704700207047090760
:10316000090E002804DB00F1E02080F8001470470D
:1031700000F00F0000F1E02080F8141D70470021DE
:103180004FF07E5000F066BA012100F0E0BC002153
:10319000084600F05FBA30380A2801D20120704793
:1031A000002070472DE9F0410026A0F50001B1F1A3
:1031B000FE4F7DD200F500226FF07E0101EBE2515F
:1031C000C2F3025477184FF07E52A0EBC15602EBC7
:1031D000045557EA040047D02946304600F0D2F99A
:1031E00080462946304600F00BFC414600F032FA9A
:1031F0000546014600F038FB8046454900F034FBA7
:10320000444900F0BFF906464146284600F02CFB31
:10321000314600F029FB0646384600F0F9FA074629
:103220003D4900F021FB3D49794451F8241000F05C
:10323000A9F9314600F0A6F906460121284600F01A
:1032400086FC314600F09EF905463846344900F0C8
:103250000BFB3449794451F8241000F093F92946C6
:10326000BDE8F04100F08EB94FF07E51304600F0DD
:10327000C7FB05462C4900F0F7FA2C4900F082F90B
:10328000294600F0F1FA2A4900F07CF9294600F0BD
:10329000EBFA6FF0824100F075F9044629460846C2
:1032A00000F0E2FA214600F0DFFA0146284600E08D
:1032B00003E0BDE8F04100F065B94FF07F42B2EBAA
:1032C000400F03D2BDE8F041FFF75EBFB0F1FF4F02
:1032D00008BFBDE8F081B0F1004F06D90120FDF72D
:1032E00098F9BDE8F041FFF752BF30F0004105D03A
:1032F0006FF01606172100F02AFC5BE70220FDF7AD
:1033000088F9FFF73CFF80F00040BDE8F081000045
:1033100066F1CC3EAAAA2A3FF4FD0538241100002C
:103320000070313FD810000021ED423E0A1180BEEE
:10333000C1ABAA3E08B5FEF7C9F8FFF7D5FCFFF709
:10334000EDF9FFF7D5F9FFF747FAFFF7ABFAFFF70B
:10335000DFFAFFF721FAFFF799F91420FDF70AFECB
:10336000FFF7F4FA3648FEF717FD3648FEF7ECFC97
:1033700000213448FEF700FF042233493348FDF7AB
:1033800063FC334F2F4E334C00252078D8B1207882
:103390000128FAD1607820B3FDF7F8FEA168401A41
:1033A000B0F57A7F04D3002201213846FDF7E9FE0B
:1033B00000F06EF86060B0F1844F1DDB316841F2BF
:1033C000883048631DE0002201213846FDF7D9FE10
:1033D000306845636570FFF715FB1F4B1FA2009512
:1033E00027E0012211463846FDF7CBFEFDF7CEFE61
:1033F000A06001206070DBE71C49884201DC306876
:103400004563FFF7FFFA4FF07C51606800F0BAF8AF
:1034100000F0E2F9024616A11848FCF7DDFE0E4B5B
:10342000164A102100200095FFF704FB0A4B14A256
:10343000009500210846FFF7FDFAFFF72DFCA4E7F1
:103440004C01002004010020200000203C0000204E
:1034500000080140000000200C430008E78398E5C5
:10346000B9B23AE5819CE6ADA20000000000F0414F
:10347000E6B8A9E5BAA63A25644300002800002072
:10348000E78398E5B9B23AE5BC80E590AF2000004B
:10349000F8B52B48008800F0D3F9044629482A499A
:1034A0002044884201D30020F8BD21464FF08B40D4
:1034B00000F0A6FA254E05463146204600F0D4F924
:1034C000294600F0C7F8314600F0C4F8FFF76AFE5D
:1034D0001F4900F0C9F91F4900F054F801464FF0A8
:1034E0007E5000F0B7F81C4900F08AFA04461B49E8
:1034F00000F0BAF900F070F9642190FBF1F3002BB1
:1035000000DA5B4290FBF1F201FB1200002800DAC6
:103510004042009014F1FF4F01D311A200E011A22C
:1035200011A11648FCF758FE1448FCF7BDFF82B203
:10353000642312491248FEF7F5FE2046F8BD00004C
:10354000200000200000E0BE01505F0400401C4647
:103550002CBB84390FCF5B3B339388430000C842B8
:103560002D0000000000000054656D703A202573A6
:1035700025642E2530326420430D0A005D060020AC
:103580009401002090EA010F48BF81F0004100F152
:103590003E82421A3CBF801A89184FEAD0524FF03F
:1035A0007F4C1CEA410FA2EBD15318BF9CEA026F7B
:1035B00000F03B804FF0004C4CEA00204CEA012127
:1035C00021FA03FC10EB0C0C1ED202F1FF325FEA71
:1035D0001C2040EBC25038BF70471CF07F0F4FEAF1
:1035E000400C18BFBCF17F4F38BF7047C3F12003B8
:1035F000994008BF20F00100BCF17F4F38BF7047F1
:10360000A0F1C04000F0F7B94FEA3C00000A40EBDF
:10361000C25028BF1CF0FF0F4FEA400CE6D018BF85
:10362000BCF17F4F38BF7047EAE79CEA026F05D0D4
:1036300010EA5C0F08BF00F00040704710B500F0C2
:1036400094F900BF64FBBE3E014800F04EBA00BFD3
:103650000000C07F4FF47F0C1CEAD0121EBF1CEA92
:10366000D11392EA0C0F93EA0C0F00F0858090EAD8
:10367000010F48BF42F4807240F4000C41F4000096
:103680002CF07F4120F07F4000B58142A2EB030285
:103690000FF2081CACEB504EC0F100009EF800E0A9
:1036A0004FEA4E0E00FB0EFC38BF49004FEA2C1CBF
:1036B00002F5FA020CFB0EF34FEACE1E4FEA112C74
:1036C0004FEAC1210EEB635E42EB22420EFB0CFC83
:1036D0004FEA1C5300FB03114FEA112C4FEA013152
:1036E0000EFB0CFC4FEADC4C00FB0C11C14228BF66
:1036F00009184CEB03335DF804EB10EB410143EB8D
:10370000C250B2F57C0F38BF704729D512F0F00FC8
:103710001CBF00F1C04000F0004070470081828370
:103720008485868788898B8C8D8E8F9192939596D0
:1037300097999A9C9D9FA0A2A3A5A7A8AAACAEB05A
:10374000B2B3B5B7B9BCBEC0C2C5C7C9CCCED1D45F
:10375000D7D9DCDFE2E6E9ECF0F3F7FAFE0000008F
:103760004FEA400C0CF1807CBCF17E4F28BF7047C3
:10377000B0F1C04000F03FB990EA010F0CEAD1135C
:1037800048BF42F48072624538BF634507D213F4E4
:103790007F0F16D080EA010000F00040704710B59E
:1037A00000F0E3F8097EFC3E00F005B880EA010075
:1037B00000F00040704780EA010000F0004000F097
:1037C0001AB912F47F0F04BF0248704780EA010063
:1037D00000F011B90000C07F41000B0ED3F19E0232
:1037E00008D950F400034FEA032323FA02F048BF3C
:1037F0004042704710B500F0B8F800BF49922480ED
:10380000002070476FF0004282EA200070470000FD
:1038100010F0004148BF4042B0FA80F310FA03F2C2
:10382000C3F19D030BD051EAC35101EB12205306A3
:1038300038BF704700F1010008BF20F00100704759
:10384000B0FA80F310FA03F2C3F19D030AD0D90550
:1038500001EB1220530638BF704700F1010008BF8A
:1038600020F00100704700004FF47F0C1CEAD012DA
:103870001EBF1CEAD11392EA0C0F93EA0C0F00F062
:10388000478090EA010F48BF42F480724FF0004C2D
:103890004CEA00204CEA012102EB0302A0FB0113D9
:1038A000A2F50002002918BF43F001035B0028BF06
:1038B0004FEA330342EB22425FEA132C4CEBC25037
:1038C0002EBFBCEB436FB2F57C0F70474FEA036C21
:1038D000BCF1004F08BF20F00100B2F57C0F38BFEB
:1038E00070470BD582F0FF0212F5803FC8BF7047CA
:1038F00000F1C040D8BF00F00040704700F5000C58
:103900005FEA4C0C48BF7047B0F1C04000F073B89C
:1039100090EA010F0CEAD11348BF42F4807262456D
:1039200038BF634504D280EA010000F000407047D0
:1039300010B500F01AF800BF8900013E00F007B88A
:1039400000F009B85FEA410C5FEA1C6C08D080EA1D
:10395000010000F050B85FEA400C5FEA1C6CF6D141
:103960004FF00040A0F5800070470EF1020E2EF0DF
:10397000030E5EF8044B244204D44FEA4102B2F134
:103980007F4F11D84FEA4003B3F17F4F0CD80ED1CF
:103990004FEAD07CB2F17F4F0CEB4C0C0CF1020CD7
:1039A00008BF4CEBD17C04E04FF0080C01E04FEA7B
:1039B000D17C0CEB4C0324FA03F404F00704B4F1BB
:1039C000040C06D20EEB840CBDE810404CF0010C48
:1039D0006047DFE80CF0070802024FF00040A0F556
:1039E000800010BD0846420018BFD2F1807288BF27
:1039F00000F0004010BDFF2141EAD050C0057047E3
:103A000090EA010F48BF81F000413FF5C2AD421A74
:103A100004D882F00042A0EB020011444FEAD052D9
:103A20004FF07F4C1CEA410FA2EBD15318BF9CEA28
:103A3000026F4AD04FF0004C4CEA00204CEA0121C2
:103A400021FA03FCB0EB0C0C0FD412F0FE0F36D0B1
:103A50005FEA4C001DD5001240EBC25038BF7047E2
:103A60001CF03F0F18BF70470BE0A2F101025FEAA4
:103A70001C2040EBC25038BF70471CF07F0F18BFAE
:103A80007047C3F12003994014BF401E20F001008D
:103A9000704780084FEA122308BF7047B0FA80FCD5
:103AA000A2EB0C02CCF1280C60FA0CF093EA122F76
:103AB00004BF00EBC25070474FEAC3707047130A4F
:103AC0005FEADC1008BF7047F6E79CEA026F04D09B
:103AD00010EA5C0F08BF0020704710B5FFF745FFE4
:103AE00040DFF63E81F0004070470CF00F03092BD9
:103AF00008BF082000F051800A2B0BD0082B18BFFC
:103B0000704708BF1CF0400F0AD04FF000004FF084
:103B1000000170471CF0400F18BF4FF00040704785
:103B20001CF0100F08D020F0704300F07F4242EAF2
:103B3000D3014FEA4370704700F0604021F07F42AC
:103B400042EA000201F07F4040EA727070474FF095
:103B5000FF0212EAD0521CBF92F0FF038B42C2BF99
:103B6000D14200EBC1507047002A0AD0002B0BD085
:103B7000002900F00040A4BF40F0FE4040F40000E7
:103B8000704700F00040704743024FF00B0C18BF25
:103B90004CF0806C7FF458AD70471CF4801F11D03E
:103BA0001CF4E02F03D06FEACC31490070474FF08E
:103BB0004050EFF3008222F0704242EA000282F3AA
:103BC000008870474FF000007047010202030405AF
:103BD000060708090A0B0C0D0E0F1010000000005C
:103BE00000000000010203040607080900000000AD
:103BF00001020304000000000000000000000000BB
:103C000000000000000000F8000000000000003389
:103C10003000000000100C06100C06000000000030
:103C20000000000040C07840C0784000043F040419
:103C30003F040400007088FC08300000001820FFDA
:103C4000211E0000F008F000E018000000211C0315
:103C50001E211E0000F00888700000001E21232491
:103C60001927211010160E000000000000000000AF
:103C700000000000000000E018040200000000073F
:103C80001820400000020418E00000000040201846
:103C900007000000404080F0804040000202010F19
:103CA00001020200000000F0000000000101011FFD
:103CB00001010100000000000000000080B0700061
:103CC00000000000000000000000000000010101F1
:103CD0000101010100000000000000000030300080
:103CE000000000000000000080601804006018065A
:103CF0000100000000E010080810E000000F102094
:103D000020100F00001010F8000000000020203FDD
:103D10002020000000700808088870000030282467
:103D20002221300000300888884830000018202008
:103D300020110E000000C02010F80000000704242D
:103D4000243F240000F80888880808000019212072
:103D500020110E0000E0108888180000000F1120CC
:103D600020110E0000380808C83808000000003F85
:103D7000000000000070880808887000001C2221E4
:103D800021221C0000E010080810E0000000312291
:103D900022110F00000000C0C00000000000003031
:103DA0003000000000000080000000000000806083
:103DB0000000000000008040201008000001020404
:103DC00008102000404040404040400004040404EB
:103DD00004040400000810204080000000201008A7
:103DE00004020100007048080808F00000000030DC
:103DF00036010000C030C828E810E000071827246A
:103E000023140B000000C038E0000000203C230217
:103E10000227382008F8888888700000203F20207A
:103E200020110E00C03008080808380007182020AC
:103E30002010080008F808080810E000203F2020A3
:103E400020100F0008F88888E8081000203F202084
:103E50002320180008F88888E8081000203F200078
:103E600003000000C03008080838000007182020B0
:103E7000221E020008F808000008F808203F21016F
:103E800001213F20000808F8080800000020203F1A
:103E90002020000000000808F8080800C08080808A
:103EA0007F00000008F888C028180800203F200183
:103EB0002638200008F8080000000000203F2020DD
:103EC0002020300008F8F800F8F80800203F003FF4
:103ED000003F200008F830C00008F808203F20000C
:103EE00007183F00E01008080810E0000F1020201D
:103EF00020100F0008F808080808F000203F2101F2
:103F000001010000E01008080810E0000F18242448
:103F100038504F0008F8888888887000203F2000BB
:103F2000030C302000708808080838000038202171
:103F300021221C00180808F8080818000000203F7B
:103F40002000000008F808000008F808001F2020E2
:103F500020201F000878880000C8380800000738B3
:103F60000E010000F80800F80008F800033C070004
:103F7000073C0300081868808068180820302C036C
:103F8000032C30200838C800C83808000000203F43
:103F90002000000010080808C83808002038262132
:103FA00020201800000000FE020202000000007F36
:103FB00040404000000C30C0000000000000000144
:103FC0000638C00000020202FE000000004040402F
:103FD0007F00000000000402020204000000000054
:103FE00000000000000000000000000080808080D1
:103FF00080808080000202040000000000000000B9
:104000000000000000008080808000000019242251
:1040100022223F2008F8008080000000003F11208D
:1040200020110E000000008080800000000E112092
:1040300020201100000000808088F800000E112070
:1040400020103F200000808080800000001F22227E
:1040500022221300008080F0888888180020203FEA
:10406000202000000000808080808000006B9494FD
:104070009493600008F8008080800000203F2100B9
:1040800000203F2000809898000000000020203F82
:1040900020200000000000809898000000C0808070
:1040A000807F000008F8000080808000203F24020C
:1040B0002D302000000808F8000000000020203FFC
:1040C000202000008080808080808000203F2000B1
:1040D0003F20003F8080008080800000203F210042
:1040E00000203F200000808080800000001F2020F2
:1040F00020201F00808000808000000080FFA12021
:1041000020110E000000008080808000000E112031
:1041100020A0FF80808080008080800020203F21C0
:104120002000010000008080808080000033242473
:1041300024241900008080E0808000000000001F1F
:10414000202000008080000000808000001F2020D0
:1041500020103F20808080000080808000010E3091
:104160000806010080800080008080800F300C03F2
:104170000C300F0000808000808080000020312EF5
:104180000E312000808080000080808080818E70D1
:104190001806010000808080808080000021302C83
:1041A0002221300000000000807C0202000000009C
:1041B000003F404000000000FF0000000000000041
:1041C000FF0000000002027C800000000040403F31
:1041D00000000000000601010202040400000000CB
:1041E0000000000010080000F43B0008E6B8A90039
:1041F0001060028C0000FE9292929292FE000000EB
:1042000004047E01407E42427E427E42427E400065
:10421000E5BAA6000000FC242424FC252624FC2466
:104220002424040040308F80844C55252525554C8E
:1042300080808000E5819C008060F8070004745451
:1042400055565454740400000000FF000301054556
:10425000857D050505010300E6ADA200000000F024
:10426000000000FF40404040400000004040407FD0
:104270004040407F4040404040404000E5BC80001E
:1042800080828282FE8282828282FE82828280009C
:10429000008040300F0000000000FF000000000020
:1042A000E590AF00000000FC4444444546444444CB
:1042B000447C00004020180700FC4444444444442B
:1042C00044FC0000E7839800807000FF201000107D
:1042D000FF101010FF1010008060180708B0422275
:1042E0001B0202020B32C200E5B9B200808082825A
:1042F000828282FE828282828280800000000000B0
:10430000000000FF0000000000000000101000008E
:10431000EC41000808000000E44100080400000827
:10432000000000000000000200010000100000007A
:10433000000000000030F13D0070643E0000A33E2C
:104340000090CF3E0090F83E00400F3F00E0203F3D
:104350000000000015B78337CDE37B380EE1C53888
:1043600060F69138AF5F0F38E1BC3E3823F447392F
:1043700090430008000000202800000028010008E9
:10438000B843000828000020B80C000044010008D1
:10439000000001000000000000000000010000001B
:1043A000100000000000000000127A000000000071
:0843B000000000000000000005
:04000005080000ED02
:00000001FF
